{
  "_format": "hh-sol-artifact-1",
  "contractName": "NFT",
  "sourceName": "contracts/NFT.sol",
  "abi": [
    {
      "inputs": [
        {
          "internalType": "address",
          "name": "_token",
          "type": "address"
        }
      ],
      "stateMutability": "nonpayable",
      "type": "constructor"
    },
    {
      "inputs": [],
      "name": "NFT__DontHaveEnoughTokensToMintNFT",
      "type": "error"
    },
    {
      "inputs": [],
      "name": "NFT__NFTMintingLimitReached",
      "type": "error"
    },
    {
      "inputs": [],
      "name": "NFT__TransferFailed",
      "type": "error"
    },
    {
      "inputs": [],
      "name": "NFT__YouDidntProvideApprovalOFTokensForNFTMinting",
      "type": "error"
    },
    {
      "anonymous": false,
      "inputs": [
        {
          "indexed": true,
          "internalType": "address",
          "name": "owner",
          "type": "address"
        },
        {
          "indexed": true,
          "internalType": "address",
          "name": "approved",
          "type": "address"
        },
        {
          "indexed": true,
          "internalType": "uint256",
          "name": "tokenId",
          "type": "uint256"
        }
      ],
      "name": "Approval",
      "type": "event"
    },
    {
      "anonymous": false,
      "inputs": [
        {
          "indexed": true,
          "internalType": "address",
          "name": "owner",
          "type": "address"
        },
        {
          "indexed": true,
          "internalType": "address",
          "name": "operator",
          "type": "address"
        },
        {
          "indexed": false,
          "internalType": "bool",
          "name": "approved",
          "type": "bool"
        }
      ],
      "name": "ApprovalForAll",
      "type": "event"
    },
    {
      "anonymous": false,
      "inputs": [
        {
          "indexed": true,
          "internalType": "address",
          "name": "owner",
          "type": "address"
        },
        {
          "indexed": true,
          "internalType": "address",
          "name": "nftAddress",
          "type": "address"
        },
        {
          "indexed": true,
          "internalType": "uint256",
          "name": "tokenId",
          "type": "uint256"
        }
      ],
      "name": "NFTMinted",
      "type": "event"
    },
    {
      "anonymous": false,
      "inputs": [
        {
          "indexed": true,
          "internalType": "address",
          "name": "from",
          "type": "address"
        },
        {
          "indexed": true,
          "internalType": "address",
          "name": "to",
          "type": "address"
        },
        {
          "indexed": true,
          "internalType": "uint256",
          "name": "tokenId",
          "type": "uint256"
        }
      ],
      "name": "Transfer",
      "type": "event"
    },
    {
      "inputs": [
        {
          "internalType": "address",
          "name": "to",
          "type": "address"
        },
        {
          "internalType": "uint256",
          "name": "tokenId",
          "type": "uint256"
        }
      ],
      "name": "approve",
      "outputs": [],
      "stateMutability": "nonpayable",
      "type": "function"
    },
    {
      "inputs": [
        {
          "internalType": "address",
          "name": "owner",
          "type": "address"
        }
      ],
      "name": "balanceOf",
      "outputs": [
        {
          "internalType": "uint256",
          "name": "",
          "type": "uint256"
        }
      ],
      "stateMutability": "view",
      "type": "function"
    },
    {
      "inputs": [],
      "name": "getAllNFTs",
      "outputs": [
        {
          "components": [
            {
              "internalType": "uint256",
              "name": "tokenid",
              "type": "uint256"
            },
            {
              "internalType": "address",
              "name": "owner",
              "type": "address"
            }
          ],
          "internalType": "struct NFT.NFTDetails[]",
          "name": "",
          "type": "tuple[]"
        }
      ],
      "stateMutability": "view",
      "type": "function"
    },
    {
      "inputs": [
        {
          "internalType": "uint256",
          "name": "tokenId",
          "type": "uint256"
        }
      ],
      "name": "getApproved",
      "outputs": [
        {
          "internalType": "address",
          "name": "",
          "type": "address"
        }
      ],
      "stateMutability": "view",
      "type": "function"
    },
    {
      "inputs": [],
      "name": "getTokenCounter",
      "outputs": [
        {
          "internalType": "uint256",
          "name": "",
          "type": "uint256"
        }
      ],
      "stateMutability": "view",
      "type": "function"
    },
    {
      "inputs": [
        {
          "internalType": "address",
          "name": "owner",
          "type": "address"
        },
        {
          "internalType": "address",
          "name": "operator",
          "type": "address"
        }
      ],
      "name": "isApprovedForAll",
      "outputs": [
        {
          "internalType": "bool",
          "name": "",
          "type": "bool"
        }
      ],
      "stateMutability": "view",
      "type": "function"
    },
    {
      "inputs": [
        {
          "internalType": "string",
          "name": "_tokenURI",
          "type": "string"
        }
      ],
      "name": "mintNft",
      "outputs": [
        {
          "internalType": "uint256",
          "name": "",
          "type": "uint256"
        }
      ],
      "stateMutability": "nonpayable",
      "type": "function"
    },
    {
      "inputs": [],
      "name": "mintingFees",
      "outputs": [
        {
          "internalType": "uint256",
          "name": "",
          "type": "uint256"
        }
      ],
      "stateMutability": "pure",
      "type": "function"
    },
    {
      "inputs": [],
      "name": "name",
      "outputs": [
        {
          "internalType": "string",
          "name": "",
          "type": "string"
        }
      ],
      "stateMutability": "view",
      "type": "function"
    },
    {
      "inputs": [
        {
          "internalType": "uint256",
          "name": "tokenId",
          "type": "uint256"
        }
      ],
      "name": "ownerOf",
      "outputs": [
        {
          "internalType": "address",
          "name": "",
          "type": "address"
        }
      ],
      "stateMutability": "view",
      "type": "function"
    },
    {
      "inputs": [
        {
          "internalType": "address",
          "name": "from",
          "type": "address"
        },
        {
          "internalType": "address",
          "name": "to",
          "type": "address"
        },
        {
          "internalType": "uint256",
          "name": "tokenId",
          "type": "uint256"
        }
      ],
      "name": "safeTransferFrom",
      "outputs": [],
      "stateMutability": "nonpayable",
      "type": "function"
    },
    {
      "inputs": [
        {
          "internalType": "address",
          "name": "from",
          "type": "address"
        },
        {
          "internalType": "address",
          "name": "to",
          "type": "address"
        },
        {
          "internalType": "uint256",
          "name": "tokenId",
          "type": "uint256"
        },
        {
          "internalType": "bytes",
          "name": "data",
          "type": "bytes"
        }
      ],
      "name": "safeTransferFrom",
      "outputs": [],
      "stateMutability": "nonpayable",
      "type": "function"
    },
    {
      "inputs": [
        {
          "internalType": "address",
          "name": "operator",
          "type": "address"
        },
        {
          "internalType": "bool",
          "name": "approved",
          "type": "bool"
        }
      ],
      "name": "setApprovalForAll",
      "outputs": [],
      "stateMutability": "nonpayable",
      "type": "function"
    },
    {
      "inputs": [
        {
          "internalType": "bytes4",
          "name": "interfaceId",
          "type": "bytes4"
        }
      ],
      "name": "supportsInterface",
      "outputs": [
        {
          "internalType": "bool",
          "name": "",
          "type": "bool"
        }
      ],
      "stateMutability": "view",
      "type": "function"
    },
    {
      "inputs": [],
      "name": "symbol",
      "outputs": [
        {
          "internalType": "string",
          "name": "",
          "type": "string"
        }
      ],
      "stateMutability": "view",
      "type": "function"
    },
    {
      "inputs": [
        {
          "internalType": "uint256",
          "name": "tokenId",
          "type": "uint256"
        }
      ],
      "name": "tokenURI",
      "outputs": [
        {
          "internalType": "string",
          "name": "",
          "type": "string"
        }
      ],
      "stateMutability": "view",
      "type": "function"
    },
    {
      "inputs": [
        {
          "internalType": "address",
          "name": "from",
          "type": "address"
        },
        {
          "internalType": "address",
          "name": "to",
          "type": "address"
        },
        {
          "internalType": "uint256",
          "name": "tokenId",
          "type": "uint256"
        }
      ],
      "name": "transferFrom",
      "outputs": [],
      "stateMutability": "nonpayable",
      "type": "function"
    }
  ],
  "bytecode": "0x60a06040523480156200001157600080fd5b50604051620033c0380380620033c0833981810160405281019062000037919062000237565b6040518060400160405280600681526020017f4d79204e465400000000000000000000000000000000000000000000000000008152506040518060400160405280600281526020017f4d4e0000000000000000000000000000000000000000000000000000000000008152508160009080519060200190620000bb9291906200011d565b508060019080519060200190620000d49291906200011d565b50505060006007819055508073ffffffffffffffffffffffffffffffffffffffff1660808173ffffffffffffffffffffffffffffffffffffffff1660601b8152505050620002ce565b8280546200012b9062000298565b90600052602060002090601f0160209004810192826200014f57600085556200019b565b82601f106200016a57805160ff19168380011785556200019b565b828001600101855582156200019b579182015b828111156200019a5782518255916020019190600101906200017d565b5b509050620001aa9190620001ae565b5090565b5b80821115620001c9576000816000905550600101620001af565b5090565b600080fd5b600073ffffffffffffffffffffffffffffffffffffffff82169050919050565b6000620001ff82620001d2565b9050919050565b6200021181620001f2565b81146200021d57600080fd5b50565b600081519050620002318162000206565b92915050565b60006020828403121562000250576200024f620001cd565b5b6000620002608482850162000220565b91505092915050565b7f4e487b7100000000000000000000000000000000000000000000000000000000600052602260045260246000fd5b60006002820490506001821680620002b157607f821691505b60208210811415620002c857620002c762000269565b5b50919050565b60805160601c6130c5620002fb60003960008181610ab901528181610ba00152610c8501526130c56000f3fe608060405234801561001057600080fd5b506004361061010b5760003560e01c806370a08231116100a2578063b88d4fde11610071578063b88d4fde146102b8578063c87b56dd146102d4578063da86f4a914610304578063e0391b0914610334578063e985e9c5146103525761010b565b806370a08231146102305780638c2fa9ea1461026057806395d89b411461027e578063a22cb4651461029c5761010b565b806323b872dd116100de57806323b872dd146101aa57806342842e0e146101c65780636352211e146101e25780636e02007d146102125761010b565b806301ffc9a71461011057806306fdde0314610140578063081812fc1461015e578063095ea7b31461018e575b600080fd5b61012a60048036038101906101259190611ea6565b610382565b6040516101379190611eee565b60405180910390f35b610148610464565b6040516101559190611fa2565b60405180910390f35b61017860048036038101906101739190611ffa565b6104f6565b6040516101859190612068565b60405180910390f35b6101a860048036038101906101a391906120af565b61053c565b005b6101c460048036038101906101bf91906120ef565b610654565b005b6101e060048036038101906101db91906120ef565b6106b4565b005b6101fc60048036038101906101f79190611ffa565b6106d4565b6040516102099190612068565b60405180910390f35b61021a610786565b6040516102279190612151565b60405180910390f35b61024a6004803603810190610245919061216c565b610790565b6040516102579190612151565b60405180910390f35b610268610848565b6040516102759190612151565b60405180910390f35b610286610855565b6040516102939190611fa2565b60405180910390f35b6102b660048036038101906102b191906121c5565b6108e7565b005b6102d260048036038101906102cd919061233a565b6108fd565b005b6102ee60048036038101906102e99190611ffa565b61095f565b6040516102fb9190611fa2565b60405180910390f35b61031e6004803603810190610319919061245e565b610a72565b60405161032b9190612151565b60405180910390f35b61033c610e9b565b60405161034991906125a3565b60405180910390f35b61036c600480360381019061036791906125c5565b610fc1565b6040516103799190611eee565b60405180910390f35b60007f80ac58cd000000000000000000000000000000000000000000000000000000007bffffffffffffffffffffffffffffffffffffffffffffffffffffffff1916827bffffffffffffffffffffffffffffffffffffffffffffffffffffffff1916148061044d57507f5b5e139f000000000000000000000000000000000000000000000000000000007bffffffffffffffffffffffffffffffffffffffffffffffffffffffff1916827bffffffffffffffffffffffffffffffffffffffffffffffffffffffff1916145b8061045d575061045c82611055565b5b9050919050565b60606000805461047390612634565b80601f016020809104026020016040519081016040528092919081815260200182805461049f90612634565b80156104ec5780601f106104c1576101008083540402835291602001916104ec565b820191906000526020600020905b8154815290600101906020018083116104cf57829003601f168201915b5050505050905090565b6000610501826110bf565b6004600083815260200190815260200160002060009054906101000a900473ffffffffffffffffffffffffffffffffffffffff169050919050565b6000610547826106d4565b90508073ffffffffffffffffffffffffffffffffffffffff168373ffffffffffffffffffffffffffffffffffffffff1614156105b8576040517f08c379a00000000000000000000000000000000000000000000000000000000081526004016105af906126d8565b60405180910390fd5b8073ffffffffffffffffffffffffffffffffffffffff166105d761110a565b73ffffffffffffffffffffffffffffffffffffffff16148061060657506106058161060061110a565b610fc1565b5b610645576040517f08c379a000000000000000000000000000000000000000000000000000000000815260040161063c9061276a565b60405180910390fd5b61064f8383611112565b505050565b61066561065f61110a565b826111cb565b6106a4576040517f08c379a000000000000000000000000000000000000000000000000000000000815260040161069b906127fc565b60405180910390fd5b6106af838383611260565b505050565b6106cf838383604051806020016040528060008152506108fd565b505050565b6000806002600084815260200190815260200160002060009054906101000a900473ffffffffffffffffffffffffffffffffffffffff169050600073ffffffffffffffffffffffffffffffffffffffff168173ffffffffffffffffffffffffffffffffffffffff16141561077d576040517f08c379a000000000000000000000000000000000000000000000000000000000815260040161077490612868565b60405180910390fd5b80915050919050565b6000600754905090565b60008073ffffffffffffffffffffffffffffffffffffffff168273ffffffffffffffffffffffffffffffffffffffff161415610801576040517f08c379a00000000000000000000000000000000000000000000000000000000081526004016107f8906128fa565b60405180910390fd5b600360008373ffffffffffffffffffffffffffffffffffffffff1673ffffffffffffffffffffffffffffffffffffffff168152602001908152602001600020549050919050565b600064012a05f200905090565b60606001805461086490612634565b80601f016020809104026020016040519081016040528092919081815260200182805461089090612634565b80156108dd5780601f106108b2576101008083540402835291602001916108dd565b820191906000526020600020905b8154815290600101906020018083116108c057829003601f168201915b5050505050905090565b6108f96108f261110a565b83836114c7565b5050565b61090e61090861110a565b836111cb565b61094d576040517f08c379a0000000000000000000000000000000000000000000000000000000008152600401610944906127fc565b60405180910390fd5b61095984848484611634565b50505050565b606061096a826110bf565b600060066000848152602001908152602001600020805461098a90612634565b80601f01602080910402602001604051908101604052809291908181526020018280546109b690612634565b8015610a035780601f106109d857610100808354040283529160200191610a03565b820191906000526020600020905b8154815290600101906020018083116109e657829003601f168201915b505050505090506000610a14611690565b9050600081511415610a2a578192505050610a6d565b600082511115610a5f578082604051602001610a47929190612956565b60405160208183030381529060405292505050610a6d565b610a68846116a7565b925050505b919050565b600060026007541115610ab1576040517fb301b28500000000000000000000000000000000000000000000000000000000815260040160405180910390fd5b64012a05f2007f000000000000000000000000000000000000000000000000000000000000000073ffffffffffffffffffffffffffffffffffffffff166370a08231336040518263ffffffff1660e01b8152600401610b109190612068565b60206040518083038186803b158015610b2857600080fd5b505afa158015610b3c573d6000803e3d6000fd5b505050506040513d601f19601f82011682018060405250810190610b60919061298f565b1015610b98576040517fbdd43e9f00000000000000000000000000000000000000000000000000000000815260040160405180910390fd5b64012a05f2007f000000000000000000000000000000000000000000000000000000000000000073ffffffffffffffffffffffffffffffffffffffff1663dd62ed3e33306040518363ffffffff1660e01b8152600401610bf99291906129bc565b60206040518083038186803b158015610c1157600080fd5b505afa158015610c25573d6000803e3d6000fd5b505050506040513d601f19601f82011682018060405250810190610c49919061298f565b1015610c81576040517f37710a6900000000000000000000000000000000000000000000000000000000815260040160405180910390fd5b60007f000000000000000000000000000000000000000000000000000000000000000073ffffffffffffffffffffffffffffffffffffffff166323b872dd333064012a05f2006040518463ffffffff1660e01b8152600401610ce5939291906129e5565b602060405180830381600087803b158015610cff57600080fd5b505af1158015610d13573d6000803e3d6000fd5b505050506040513d601f19601f82011682018060405250810190610d379190612a31565b905080610d70576040517fbcc8eeb100000000000000000000000000000000000000000000000000000000815260040160405180910390fd5b610d7c3360075461170f565b610d886007548461172d565b604051806040016040528060075481526020013373ffffffffffffffffffffffffffffffffffffffff168152506008600060075481526020019081526020016000206000820151816000015560208201518160010160006101000a81548173ffffffffffffffffffffffffffffffffffffffff021916908373ffffffffffffffffffffffffffffffffffffffff1602179055509050506007543073ffffffffffffffffffffffffffffffffffffffff163373ffffffffffffffffffffffffffffffffffffffff167f2f7377f0470ca5f5d5bcb55c33ff5e20e0a2653933e0615e99f01e81640d0a9260405160405180910390a46001600754610e8a9190612a8d565b600781905550600754915050919050565b6060600060075467ffffffffffffffff811115610ebb57610eba61220f565b5b604051908082528060200260200182016040528015610ef457816020015b610ee1611d67565b815260200190600190039081610ed95790505b50905060005b600754811015610fb957600060086000838152602001908152602001600020905080604051806040016040529081600082015481526020016001820160009054906101000a900473ffffffffffffffffffffffffffffffffffffffff1673ffffffffffffffffffffffffffffffffffffffff1673ffffffffffffffffffffffffffffffffffffffff1681525050838381518110610f9a57610f99612ae3565b5b6020026020010181905250508080610fb190612b12565b915050610efa565b508091505090565b6000600560008473ffffffffffffffffffffffffffffffffffffffff1673ffffffffffffffffffffffffffffffffffffffff16815260200190815260200160002060008373ffffffffffffffffffffffffffffffffffffffff1673ffffffffffffffffffffffffffffffffffffffff16815260200190815260200160002060009054906101000a900460ff16905092915050565b60007f01ffc9a7000000000000000000000000000000000000000000000000000000007bffffffffffffffffffffffffffffffffffffffffffffffffffffffff1916827bffffffffffffffffffffffffffffffffffffffffffffffffffffffff1916149050919050565b6110c8816117a1565b611107576040517f08c379a00000000000000000000000000000000000000000000000000000000081526004016110fe90612868565b60405180910390fd5b50565b600033905090565b816004600083815260200190815260200160002060006101000a81548173ffffffffffffffffffffffffffffffffffffffff021916908373ffffffffffffffffffffffffffffffffffffffff160217905550808273ffffffffffffffffffffffffffffffffffffffff16611185836106d4565b73ffffffffffffffffffffffffffffffffffffffff167f8c5be1e5ebec7d5bd14f71427d1e84f3dd0314c0f7b2291e5b200ac8c7c3b92560405160405180910390a45050565b6000806111d7836106d4565b90508073ffffffffffffffffffffffffffffffffffffffff168473ffffffffffffffffffffffffffffffffffffffff16148061121957506112188185610fc1565b5b8061125757508373ffffffffffffffffffffffffffffffffffffffff1661123f846104f6565b73ffffffffffffffffffffffffffffffffffffffff16145b91505092915050565b8273ffffffffffffffffffffffffffffffffffffffff16611280826106d4565b73ffffffffffffffffffffffffffffffffffffffff16146112d6576040517f08c379a00000000000000000000000000000000000000000000000000000000081526004016112cd90612bcd565b60405180910390fd5b600073ffffffffffffffffffffffffffffffffffffffff168273ffffffffffffffffffffffffffffffffffffffff161415611346576040517f08c379a000000000000000000000000000000000000000000000000000000000815260040161133d90612c5f565b60405180910390fd5b61135183838361180d565b61135c600082611112565b6001600360008573ffffffffffffffffffffffffffffffffffffffff1673ffffffffffffffffffffffffffffffffffffffff16815260200190815260200160002060008282546113ac9190612c7f565b925050819055506001600360008473ffffffffffffffffffffffffffffffffffffffff1673ffffffffffffffffffffffffffffffffffffffff16815260200190815260200160002060008282546114039190612a8d565b92505081905550816002600083815260200190815260200160002060006101000a81548173ffffffffffffffffffffffffffffffffffffffff021916908373ffffffffffffffffffffffffffffffffffffffff160217905550808273ffffffffffffffffffffffffffffffffffffffff168473ffffffffffffffffffffffffffffffffffffffff167fddf252ad1be2c89b69c2b068fc378daa952ba7f163c4a11628f55a4df523b3ef60405160405180910390a46114c2838383611812565b505050565b8173ffffffffffffffffffffffffffffffffffffffff168373ffffffffffffffffffffffffffffffffffffffff161415611536576040517f08c379a000000000000000000000000000000000000000000000000000000000815260040161152d90612cff565b60405180910390fd5b80600560008573ffffffffffffffffffffffffffffffffffffffff1673ffffffffffffffffffffffffffffffffffffffff16815260200190815260200160002060008473ffffffffffffffffffffffffffffffffffffffff1673ffffffffffffffffffffffffffffffffffffffff16815260200190815260200160002060006101000a81548160ff0219169083151502179055508173ffffffffffffffffffffffffffffffffffffffff168373ffffffffffffffffffffffffffffffffffffffff167f17307eab39ab6107e8899845ad3d59bd9653f200f220920489ca2b5937696c31836040516116279190611eee565b60405180910390a3505050565b61163f848484611260565b61164b84848484611817565b61168a576040517f08c379a000000000000000000000000000000000000000000000000000000000815260040161168190612d91565b60405180910390fd5b50505050565b606060405180602001604052806000815250905090565b60606116b2826110bf565b60006116bc611690565b905060008151116116dc5760405180602001604052806000815250611707565b806116e6846119ae565b6040516020016116f7929190612956565b6040516020818303038152906040525b915050919050565b611729828260405180602001604052806000815250611b0f565b5050565b611736826117a1565b611775576040517f08c379a000000000000000000000000000000000000000000000000000000000815260040161176c90612e23565b60405180910390fd5b8060066000848152602001908152602001600020908051906020019061179c929190611d97565b505050565b60008073ffffffffffffffffffffffffffffffffffffffff166002600084815260200190815260200160002060009054906101000a900473ffffffffffffffffffffffffffffffffffffffff1673ffffffffffffffffffffffffffffffffffffffff1614159050919050565b505050565b505050565b60006118388473ffffffffffffffffffffffffffffffffffffffff16611b6a565b156119a1578373ffffffffffffffffffffffffffffffffffffffff1663150b7a0261186161110a565b8786866040518563ffffffff1660e01b81526004016118839493929190612e98565b602060405180830381600087803b15801561189d57600080fd5b505af19250505080156118ce57506040513d601f19601f820116820180604052508101906118cb9190612ef9565b60015b611951573d80600081146118fe576040519150601f19603f3d011682016040523d82523d6000602084013e611903565b606091505b50600081511415611949576040517f08c379a000000000000000000000000000000000000000000000000000000000815260040161194090612d91565b60405180910390fd5b805181602001fd5b63150b7a0260e01b7bffffffffffffffffffffffffffffffffffffffffffffffffffffffff1916817bffffffffffffffffffffffffffffffffffffffffffffffffffffffff1916149150506119a6565b600190505b949350505050565b606060008214156119f6576040518060400160405280600181526020017f30000000000000000000000000000000000000000000000000000000000000008152509050611b0a565b600082905060005b60008214611a28578080611a1190612b12565b915050600a82611a219190612f55565b91506119fe565b60008167ffffffffffffffff811115611a4457611a4361220f565b5b6040519080825280601f01601f191660200182016040528015611a765781602001600182028036833780820191505090505b5090505b60008514611b0357600182611a8f9190612c7f565b9150600a85611a9e9190612f86565b6030611aaa9190612a8d565b60f81b818381518110611ac057611abf612ae3565b5b60200101907effffffffffffffffffffffffffffffffffffffffffffffffffffffffffffff1916908160001a905350600a85611afc9190612f55565b9450611a7a565b8093505050505b919050565b611b198383611b8d565b611b266000848484611817565b611b65576040517f08c379a0000000000000000000000000000000000000000000000000000000008152600401611b5c90612d91565b60405180910390fd5b505050565b6000808273ffffffffffffffffffffffffffffffffffffffff163b119050919050565b600073ffffffffffffffffffffffffffffffffffffffff168273ffffffffffffffffffffffffffffffffffffffff161415611bfd576040517f08c379a0000000000000000000000000000000000000000000000000000000008152600401611bf490613003565b60405180910390fd5b611c06816117a1565b15611c46576040517f08c379a0000000000000000000000000000000000000000000000000000000008152600401611c3d9061306f565b60405180910390fd5b611c526000838361180d565b6001600360008473ffffffffffffffffffffffffffffffffffffffff1673ffffffffffffffffffffffffffffffffffffffff1681526020019081526020016000206000828254611ca29190612a8d565b92505081905550816002600083815260200190815260200160002060006101000a81548173ffffffffffffffffffffffffffffffffffffffff021916908373ffffffffffffffffffffffffffffffffffffffff160217905550808273ffffffffffffffffffffffffffffffffffffffff16600073ffffffffffffffffffffffffffffffffffffffff167fddf252ad1be2c89b69c2b068fc378daa952ba7f163c4a11628f55a4df523b3ef60405160405180910390a4611d6360008383611812565b5050565b604051806040016040528060008152602001600073ffffffffffffffffffffffffffffffffffffffff1681525090565b828054611da390612634565b90600052602060002090601f016020900481019282611dc55760008555611e0c565b82601f10611dde57805160ff1916838001178555611e0c565b82800160010185558215611e0c579182015b82811115611e0b578251825591602001919060010190611df0565b5b509050611e199190611e1d565b5090565b5b80821115611e36576000816000905550600101611e1e565b5090565b6000604051905090565b600080fd5b600080fd5b60007fffffffff0000000000000000000000000000000000000000000000000000000082169050919050565b611e8381611e4e565b8114611e8e57600080fd5b50565b600081359050611ea081611e7a565b92915050565b600060208284031215611ebc57611ebb611e44565b5b6000611eca84828501611e91565b91505092915050565b60008115159050919050565b611ee881611ed3565b82525050565b6000602082019050611f036000830184611edf565b92915050565b600081519050919050565b600082825260208201905092915050565b60005b83811015611f43578082015181840152602081019050611f28565b83811115611f52576000848401525b50505050565b6000601f19601f8301169050919050565b6000611f7482611f09565b611f7e8185611f14565b9350611f8e818560208601611f25565b611f9781611f58565b840191505092915050565b60006020820190508181036000830152611fbc8184611f69565b905092915050565b6000819050919050565b611fd781611fc4565b8114611fe257600080fd5b50565b600081359050611ff481611fce565b92915050565b6000602082840312156120105761200f611e44565b5b600061201e84828501611fe5565b91505092915050565b600073ffffffffffffffffffffffffffffffffffffffff82169050919050565b600061205282612027565b9050919050565b61206281612047565b82525050565b600060208201905061207d6000830184612059565b92915050565b61208c81612047565b811461209757600080fd5b50565b6000813590506120a981612083565b92915050565b600080604083850312156120c6576120c5611e44565b5b60006120d48582860161209a565b92505060206120e585828601611fe5565b9150509250929050565b60008060006060848603121561210857612107611e44565b5b60006121168682870161209a565b93505060206121278682870161209a565b925050604061213886828701611fe5565b9150509250925092565b61214b81611fc4565b82525050565b60006020820190506121666000830184612142565b92915050565b60006020828403121561218257612181611e44565b5b60006121908482850161209a565b91505092915050565b6121a281611ed3565b81146121ad57600080fd5b50565b6000813590506121bf81612199565b92915050565b600080604083850312156121dc576121db611e44565b5b60006121ea8582860161209a565b92505060206121fb858286016121b0565b9150509250929050565b600080fd5b600080fd5b7f4e487b7100000000000000000000000000000000000000000000000000000000600052604160045260246000fd5b61224782611f58565b810181811067ffffffffffffffff821117156122665761226561220f565b5b80604052505050565b6000612279611e3a565b9050612285828261223e565b919050565b600067ffffffffffffffff8211156122a5576122a461220f565b5b6122ae82611f58565b9050602081019050919050565b82818337600083830152505050565b60006122dd6122d88461228a565b61226f565b9050828152602081018484840111156122f9576122f861220a565b5b6123048482856122bb565b509392505050565b600082601f83011261232157612320612205565b5b81356123318482602086016122ca565b91505092915050565b6000806000806080858703121561235457612353611e44565b5b60006123628782880161209a565b94505060206123738782880161209a565b935050604061238487828801611fe5565b925050606085013567ffffffffffffffff8111156123a5576123a4611e49565b5b6123b18782880161230c565b91505092959194509250565b600067ffffffffffffffff8211156123d8576123d761220f565b5b6123e182611f58565b9050602081019050919050565b60006124016123fc846123bd565b61226f565b90508281526020810184848401111561241d5761241c61220a565b5b6124288482856122bb565b509392505050565b600082601f83011261244557612444612205565b5b81356124558482602086016123ee565b91505092915050565b60006020828403121561247457612473611e44565b5b600082013567ffffffffffffffff81111561249257612491611e49565b5b61249e84828501612430565b91505092915050565b600081519050919050565b600082825260208201905092915050565b6000819050602082019050919050565b6124dc81611fc4565b82525050565b6124eb81612047565b82525050565b60408201600082015161250760008501826124d3565b50602082015161251a60208501826124e2565b50505050565b600061252c83836124f1565b60408301905092915050565b6000602082019050919050565b6000612550826124a7565b61255a81856124b2565b9350612565836124c3565b8060005b8381101561259657815161257d8882612520565b975061258883612538565b925050600181019050612569565b5085935050505092915050565b600060208201905081810360008301526125bd8184612545565b905092915050565b600080604083850312156125dc576125db611e44565b5b60006125ea8582860161209a565b92505060206125fb8582860161209a565b9150509250929050565b7f4e487b7100000000000000000000000000000000000000000000000000000000600052602260045260246000fd5b6000600282049050600182168061264c57607f821691505b602082108114156126605761265f612605565b5b50919050565b7f4552433732313a20617070726f76616c20746f2063757272656e74206f776e6560008201527f7200000000000000000000000000000000000000000000000000000000000000602082015250565b60006126c2602183611f14565b91506126cd82612666565b604082019050919050565b600060208201905081810360008301526126f1816126b5565b9050919050565b7f4552433732313a20617070726f76652063616c6c6572206973206e6f7420746f60008201527f6b656e206f776e6572206e6f7220617070726f76656420666f7220616c6c0000602082015250565b6000612754603e83611f14565b915061275f826126f8565b604082019050919050565b6000602082019050818103600083015261278381612747565b9050919050565b7f4552433732313a2063616c6c6572206973206e6f7420746f6b656e206f776e6560008201527f72206e6f7220617070726f766564000000000000000000000000000000000000602082015250565b60006127e6602e83611f14565b91506127f18261278a565b604082019050919050565b60006020820190508181036000830152612815816127d9565b9050919050565b7f4552433732313a20696e76616c696420746f6b656e2049440000000000000000600082015250565b6000612852601883611f14565b915061285d8261281c565b602082019050919050565b6000602082019050818103600083015261288181612845565b9050919050565b7f4552433732313a2061646472657373207a65726f206973206e6f74206120766160008201527f6c6964206f776e65720000000000000000000000000000000000000000000000602082015250565b60006128e4602983611f14565b91506128ef82612888565b604082019050919050565b60006020820190508181036000830152612913816128d7565b9050919050565b600081905092915050565b600061293082611f09565b61293a818561291a565b935061294a818560208601611f25565b80840191505092915050565b60006129628285612925565b915061296e8284612925565b91508190509392505050565b60008151905061298981611fce565b92915050565b6000602082840312156129a5576129a4611e44565b5b60006129b38482850161297a565b91505092915050565b60006040820190506129d16000830185612059565b6129de6020830184612059565b9392505050565b60006060820190506129fa6000830186612059565b612a076020830185612059565b612a146040830184612142565b949350505050565b600081519050612a2b81612199565b92915050565b600060208284031215612a4757612a46611e44565b5b6000612a5584828501612a1c565b91505092915050565b7f4e487b7100000000000000000000000000000000000000000000000000000000600052601160045260246000fd5b6000612a9882611fc4565b9150612aa383611fc4565b9250827fffffffffffffffffffffffffffffffffffffffffffffffffffffffffffffffff03821115612ad857612ad7612a5e565b5b828201905092915050565b7f4e487b7100000000000000000000000000000000000000000000000000000000600052603260045260246000fd5b6000612b1d82611fc4565b91507fffffffffffffffffffffffffffffffffffffffffffffffffffffffffffffffff821415612b5057612b4f612a5e565b5b600182019050919050565b7f4552433732313a207472616e736665722066726f6d20696e636f72726563742060008201527f6f776e6572000000000000000000000000000000000000000000000000000000602082015250565b6000612bb7602583611f14565b9150612bc282612b5b565b604082019050919050565b60006020820190508181036000830152612be681612baa565b9050919050565b7f4552433732313a207472616e7366657220746f20746865207a65726f2061646460008201527f7265737300000000000000000000000000000000000000000000000000000000602082015250565b6000612c49602483611f14565b9150612c5482612bed565b604082019050919050565b60006020820190508181036000830152612c7881612c3c565b9050919050565b6000612c8a82611fc4565b9150612c9583611fc4565b925082821015612ca857612ca7612a5e565b5b828203905092915050565b7f4552433732313a20617070726f766520746f2063616c6c657200000000000000600082015250565b6000612ce9601983611f14565b9150612cf482612cb3565b602082019050919050565b60006020820190508181036000830152612d1881612cdc565b9050919050565b7f4552433732313a207472616e7366657220746f206e6f6e20455243373231526560008201527f63656976657220696d706c656d656e7465720000000000000000000000000000602082015250565b6000612d7b603283611f14565b9150612d8682612d1f565b604082019050919050565b60006020820190508181036000830152612daa81612d6e565b9050919050565b7f45524337323155524953746f726167653a2055524920736574206f66206e6f6e60008201527f6578697374656e7420746f6b656e000000000000000000000000000000000000602082015250565b6000612e0d602e83611f14565b9150612e1882612db1565b604082019050919050565b60006020820190508181036000830152612e3c81612e00565b9050919050565b600081519050919050565b600082825260208201905092915050565b6000612e6a82612e43565b612e748185612e4e565b9350612e84818560208601611f25565b612e8d81611f58565b840191505092915050565b6000608082019050612ead6000830187612059565b612eba6020830186612059565b612ec76040830185612142565b8181036060830152612ed98184612e5f565b905095945050505050565b600081519050612ef381611e7a565b92915050565b600060208284031215612f0f57612f0e611e44565b5b6000612f1d84828501612ee4565b91505092915050565b7f4e487b7100000000000000000000000000000000000000000000000000000000600052601260045260246000fd5b6000612f6082611fc4565b9150612f6b83611fc4565b925082612f7b57612f7a612f26565b5b828204905092915050565b6000612f9182611fc4565b9150612f9c83611fc4565b925082612fac57612fab612f26565b5b828206905092915050565b7f4552433732313a206d696e7420746f20746865207a65726f2061646472657373600082015250565b6000612fed602083611f14565b9150612ff882612fb7565b602082019050919050565b6000602082019050818103600083015261301c81612fe0565b9050919050565b7f4552433732313a20746f6b656e20616c7265616479206d696e74656400000000600082015250565b6000613059601c83611f14565b915061306482613023565b602082019050919050565b600060208201905081810360008301526130888161304c565b905091905056fea2646970667358221220999a5318a7973e3845a0469110d3c5e17f01d7aabb16c4ccc091602ba87f764b64736f6c63430008080033",
  "linkReferences": {},
  "deployedLinkReferences": {}
}